{
  "contractName": "DecentralBank",
  "abi": [
    {
      "inputs": [
        {
          "internalType": "contract RWD",
          "name": "_rwd",
          "type": "address"
        },
        {
          "internalType": "contract Tether",
          "name": "_tether",
          "type": "address"
        }
      ],
      "stateMutability": "nonpayable",
      "type": "constructor"
    },
    {
      "inputs": [
        {
          "internalType": "address",
          "name": "",
          "type": "address"
        }
      ],
      "name": "hasStaked",
      "outputs": [
        {
          "internalType": "bool",
          "name": "",
          "type": "bool"
        }
      ],
      "stateMutability": "view",
      "type": "function",
      "constant": true
    },
    {
      "inputs": [
        {
          "internalType": "address",
          "name": "",
          "type": "address"
        }
      ],
      "name": "isStaking",
      "outputs": [
        {
          "internalType": "bool",
          "name": "",
          "type": "bool"
        }
      ],
      "stateMutability": "view",
      "type": "function",
      "constant": true
    },
    {
      "inputs": [],
      "name": "name",
      "outputs": [
        {
          "internalType": "string",
          "name": "",
          "type": "string"
        }
      ],
      "stateMutability": "view",
      "type": "function",
      "constant": true
    },
    {
      "inputs": [],
      "name": "owner",
      "outputs": [
        {
          "internalType": "address",
          "name": "",
          "type": "address"
        }
      ],
      "stateMutability": "view",
      "type": "function",
      "constant": true
    },
    {
      "inputs": [],
      "name": "rwd",
      "outputs": [
        {
          "internalType": "contract RWD",
          "name": "",
          "type": "address"
        }
      ],
      "stateMutability": "view",
      "type": "function",
      "constant": true
    },
    {
      "inputs": [
        {
          "internalType": "uint256",
          "name": "",
          "type": "uint256"
        }
      ],
      "name": "stakers",
      "outputs": [
        {
          "internalType": "address",
          "name": "",
          "type": "address"
        }
      ],
      "stateMutability": "view",
      "type": "function",
      "constant": true
    },
    {
      "inputs": [
        {
          "internalType": "address",
          "name": "",
          "type": "address"
        }
      ],
      "name": "stakingBalance",
      "outputs": [
        {
          "internalType": "uint256",
          "name": "",
          "type": "uint256"
        }
      ],
      "stateMutability": "view",
      "type": "function",
      "constant": true
    },
    {
      "inputs": [],
      "name": "tether",
      "outputs": [
        {
          "internalType": "contract Tether",
          "name": "",
          "type": "address"
        }
      ],
      "stateMutability": "view",
      "type": "function",
      "constant": true
    },
    {
      "inputs": [
        {
          "internalType": "uint256",
          "name": "_amount",
          "type": "uint256"
        }
      ],
      "name": "depositTokens",
      "outputs": [],
      "stateMutability": "nonpayable",
      "type": "function"
    },
    {
      "inputs": [],
      "name": "unstakeTokens",
      "outputs": [],
      "stateMutability": "nonpayable",
      "type": "function"
    },
    {
      "inputs": [],
      "name": "issueTokens",
      "outputs": [],
      "stateMutability": "nonpayable",
      "type": "function"
    }
  ],
  "bytecode": "0x60806040526040518060400160405280600e81526020017f446563656e7472616c2042616e6b000000000000000000000000000000000000815250600090805190602001906200005192919062000150565b503480156200005f57600080fd5b50604051620014c8380380620014c88339818101604052810190620000859190620002c3565b81600360006101000a81548173ffffffffffffffffffffffffffffffffffffffff021916908373ffffffffffffffffffffffffffffffffffffffff16021790555080600260006101000a81548173ffffffffffffffffffffffffffffffffffffffff021916908373ffffffffffffffffffffffffffffffffffffffff16021790555033600160006101000a81548173ffffffffffffffffffffffffffffffffffffffff021916908373ffffffffffffffffffffffffffffffffffffffff16021790555050506200036e565b8280546200015e9062000339565b90600052602060002090601f016020900481019282620001825760008555620001ce565b82601f106200019d57805160ff1916838001178555620001ce565b82800160010185558215620001ce579182015b82811115620001cd578251825591602001919060010190620001b0565b5b509050620001dd9190620001e1565b5090565b5b80821115620001fc576000816000905550600101620001e2565b5090565b600080fd5b600073ffffffffffffffffffffffffffffffffffffffff82169050919050565b6000620002328262000205565b9050919050565b6000620002468262000225565b9050919050565b620002588162000239565b81146200026457600080fd5b50565b60008151905062000278816200024d565b92915050565b60006200028b8262000225565b9050919050565b6200029d816200027e565b8114620002a957600080fd5b50565b600081519050620002bd8162000292565b92915050565b60008060408385031215620002dd57620002dc62000200565b5b6000620002ed8582860162000267565b92505060206200030085828601620002ac565b9150509250929050565b7f4e487b7100000000000000000000000000000000000000000000000000000000600052602260045260246000fd5b600060028204905060018216806200035257607f821691505b6020821081036200036857620003676200030a565b5b50919050565b61114a806200037e6000396000f3fe608060405234801561001057600080fd5b50600436106100a95760003560e01c80636f49712b116100715780636f49712b146101425780638da5cb5b14610172578063a5ce413b14610190578063c93c8f341461019a578063dd49756e146101ca578063fd5e6dd1146101e6576100a9565b806306fdde03146100ae5780631a8972d3146100cc57806345bc78ab146100ea5780635efc071a1461011a57806360ab585214610138575b600080fd5b6100b6610216565b6040516100c39190610ae0565b60405180910390f35b6100d46102a4565b6040516100e19190610b81565b60405180910390f35b61010460048036038101906100ff9190610bdf565b6102ca565b6040516101119190610c25565b60405180910390f35b6101226102e2565b60405161012f9190610c61565b60405180910390f35b610140610308565b005b61015c60048036038101906101579190610bdf565b6104fe565b6040516101699190610c97565b60405180910390f35b61017a61051e565b6040516101879190610cc1565b60405180910390f35b610198610544565b005b6101b460048036038101906101af9190610bdf565b61070c565b6040516101c19190610c97565b60405180910390f35b6101e460048036038101906101df9190610d08565b61072c565b005b61020060048036038101906101fb9190610d08565b610a08565b60405161020d9190610cc1565b60405180910390f35b6000805461022390610d64565b80601f016020809104026020016040519081016040528092919081815260200182805461024f90610d64565b801561029c5780601f106102715761010080835404028352916020019161029c565b820191906000526020600020905b81548152906001019060200180831161027f57829003601f168201915b505050505081565b600360009054906101000a900473ffffffffffffffffffffffffffffffffffffffff1681565b60056020528060005260406000206000915090505481565b600260009054906101000a900473ffffffffffffffffffffffffffffffffffffffff1681565b600160009054906101000a900473ffffffffffffffffffffffffffffffffffffffff1673ffffffffffffffffffffffffffffffffffffffff163373ffffffffffffffffffffffffffffffffffffffff1614610398576040517f08c379a000000000000000000000000000000000000000000000000000000000815260040161038f90610de1565b60405180910390fd5b60005b6004805490508110156104fb576000600482815481106103be576103bd610e01565b5b9060005260206000200160009054906101000a900473ffffffffffffffffffffffffffffffffffffffff16905060006009600560008473ffffffffffffffffffffffffffffffffffffffff1673ffffffffffffffffffffffffffffffffffffffff168152602001908152602001600020546104399190610e8e565b905060008111156104e657600360009054906101000a900473ffffffffffffffffffffffffffffffffffffffff1673ffffffffffffffffffffffffffffffffffffffff1663a9059cbb83836040518363ffffffff1660e01b81526004016104a1929190610ebf565b6020604051808303816000875af11580156104c0573d6000803e3d6000fd5b505050506040513d601f19601f820116820180604052508101906104e49190610f14565b505b505080806104f390610f41565b91505061039b565b50565b60076020528060005260406000206000915054906101000a900460ff1681565b600160009054906101000a900473ffffffffffffffffffffffffffffffffffffffff1681565b6000600560003373ffffffffffffffffffffffffffffffffffffffff1673ffffffffffffffffffffffffffffffffffffffff168152602001908152602001600020549050600081116105cb576040517f08c379a00000000000000000000000000000000000000000000000000000000081526004016105c290610ffb565b60405180910390fd5b600260009054906101000a900473ffffffffffffffffffffffffffffffffffffffff1673ffffffffffffffffffffffffffffffffffffffff1663a9059cbb33836040518363ffffffff1660e01b8152600401610628929190610ebf565b6020604051808303816000875af1158015610647573d6000803e3d6000fd5b505050506040513d601f19601f8201168201806040525081019061066b9190610f14565b506000600560003373ffffffffffffffffffffffffffffffffffffffff1673ffffffffffffffffffffffffffffffffffffffff168152602001908152602001600020819055506000600760003373ffffffffffffffffffffffffffffffffffffffff1673ffffffffffffffffffffffffffffffffffffffff16815260200190815260200160002060006101000a81548160ff02191690831515021790555050565b60066020528060005260406000206000915054906101000a900460ff1681565b6000811161076f576040517f08c379a000000000000000000000000000000000000000000000000000000000815260040161076690611067565b60405180910390fd5b600260009054906101000a900473ffffffffffffffffffffffffffffffffffffffff1673ffffffffffffffffffffffffffffffffffffffff166323b872dd3330846040518463ffffffff1660e01b81526004016107ce93929190611087565b6020604051808303816000875af11580156107ed573d6000803e3d6000fd5b505050506040513d601f19601f820116820180604052508101906108119190610f14565b5080600560003373ffffffffffffffffffffffffffffffffffffffff1673ffffffffffffffffffffffffffffffffffffffff1681526020019081526020016000205461085d91906110be565b600560003373ffffffffffffffffffffffffffffffffffffffff1673ffffffffffffffffffffffffffffffffffffffff16815260200190815260200160002081905550600660003373ffffffffffffffffffffffffffffffffffffffff1673ffffffffffffffffffffffffffffffffffffffff16815260200190815260200160002060009054906101000a900460ff16610955576004339080600181540180825580915050600190039060005260206000200160009091909190916101000a81548173ffffffffffffffffffffffffffffffffffffffff021916908373ffffffffffffffffffffffffffffffffffffffff1602179055505b6001600760003373ffffffffffffffffffffffffffffffffffffffff1673ffffffffffffffffffffffffffffffffffffffff16815260200190815260200160002060006101000a81548160ff0219169083151502179055506001600660003373ffffffffffffffffffffffffffffffffffffffff1673ffffffffffffffffffffffffffffffffffffffff16815260200190815260200160002060006101000a81548160ff02191690831515021790555050565b60048181548110610a1857600080fd5b906000526020600020016000915054906101000a900473ffffffffffffffffffffffffffffffffffffffff1681565b600081519050919050565b600082825260208201905092915050565b60005b83811015610a81578082015181840152602081019050610a66565b83811115610a90576000848401525b50505050565b6000601f19601f8301169050919050565b6000610ab282610a47565b610abc8185610a52565b9350610acc818560208601610a63565b610ad581610a96565b840191505092915050565b60006020820190508181036000830152610afa8184610aa7565b905092915050565b600073ffffffffffffffffffffffffffffffffffffffff82169050919050565b6000819050919050565b6000610b47610b42610b3d84610b02565b610b22565b610b02565b9050919050565b6000610b5982610b2c565b9050919050565b6000610b6b82610b4e565b9050919050565b610b7b81610b60565b82525050565b6000602082019050610b966000830184610b72565b92915050565b600080fd5b6000610bac82610b02565b9050919050565b610bbc81610ba1565b8114610bc757600080fd5b50565b600081359050610bd981610bb3565b92915050565b600060208284031215610bf557610bf4610b9c565b5b6000610c0384828501610bca565b91505092915050565b6000819050919050565b610c1f81610c0c565b82525050565b6000602082019050610c3a6000830184610c16565b92915050565b6000610c4b82610b4e565b9050919050565b610c5b81610c40565b82525050565b6000602082019050610c766000830184610c52565b92915050565b60008115159050919050565b610c9181610c7c565b82525050565b6000602082019050610cac6000830184610c88565b92915050565b610cbb81610ba1565b82525050565b6000602082019050610cd66000830184610cb2565b92915050565b610ce581610c0c565b8114610cf057600080fd5b50565b600081359050610d0281610cdc565b92915050565b600060208284031215610d1e57610d1d610b9c565b5b6000610d2c84828501610cf3565b91505092915050565b7f4e487b7100000000000000000000000000000000000000000000000000000000600052602260045260246000fd5b60006002820490506001821680610d7c57607f821691505b602082108103610d8f57610d8e610d35565b5b50919050565b7f43616c6c6572206d757374206265206f776e7765720000000000000000000000600082015250565b6000610dcb601583610a52565b9150610dd682610d95565b602082019050919050565b60006020820190508181036000830152610dfa81610dbe565b9050919050565b7f4e487b7100000000000000000000000000000000000000000000000000000000600052603260045260246000fd5b7f4e487b7100000000000000000000000000000000000000000000000000000000600052601260045260246000fd5b7f4e487b7100000000000000000000000000000000000000000000000000000000600052601160045260246000fd5b6000610e9982610c0c565b9150610ea483610c0c565b925082610eb457610eb3610e30565b5b828204905092915050565b6000604082019050610ed46000830185610cb2565b610ee16020830184610c16565b9392505050565b610ef181610c7c565b8114610efc57600080fd5b50565b600081519050610f0e81610ee8565b92915050565b600060208284031215610f2a57610f29610b9c565b5b6000610f3884828501610eff565b91505092915050565b6000610f4c82610c0c565b91507fffffffffffffffffffffffffffffffffffffffffffffffffffffffffffffffff8203610f7e57610f7d610e5f565b5b600182019050919050565b7f6163636f756e742062616c616e636520697320302063616e277420776974686460008201527f72617720746f6b656e7300000000000000000000000000000000000000000000602082015250565b6000610fe5602a83610a52565b9150610ff082610f89565b604082019050919050565b6000602082019050818103600083015261101481610fd8565b9050919050565b7f416d6f756e742063616e206e6f74206265203000000000000000000000000000600082015250565b6000611051601383610a52565b915061105c8261101b565b602082019050919050565b6000602082019050818103600083015261108081611044565b9050919050565b600060608201905061109c6000830186610cb2565b6110a96020830185610cb2565b6110b66040830184610c16565b949350505050565b60006110c982610c0c565b91506110d483610c0c565b9250827fffffffffffffffffffffffffffffffffffffffffffffffffffffffffffffffff0382111561110957611108610e5f565b5b82820190509291505056fea26469706673582212200eaa9ebefcbcda95e8a43f2b955578445abd6734b5c3e1e7c7ec72c4ddd1a9c964736f6c634300080d0033",
  "immutableReferences": {},
  "source": "// SPDX-License-Identifier: GPL-3.0\r\npragma solidity >=0.8.0;\r\n\r\nimport \"./RWD.sol\";\r\nimport \"./Tether.sol\";\r\n\r\ncontract DecentralBank {\r\n    string public name = \"Decentral Bank\";\r\n    address public owner;\r\n    Tether public tether;\r\n    RWD public rwd;\r\n\r\n    address[] public stakers;\r\n\r\n    mapping(address => uint256) public stakingBalance;\r\n    mapping(address => bool) public hasStaked; //false\r\n    mapping(address => bool) public isStaking; //false\r\n\r\n    constructor(RWD _rwd, Tether _tether) {\r\n        rwd = _rwd;\r\n        tether = _tether;\r\n        owner = msg.sender;\r\n    }\r\n\r\n    // staking function\r\n    function depositTokens(uint256 _amount) public {\r\n        require(_amount > 0, \"Amount can not be 0\");\r\n        // transfer tether tokens to this contract address\r\n        tether.transferFrom(msg.sender, address(this), _amount);\r\n        // update staking balance\r\n        stakingBalance[msg.sender] = stakingBalance[msg.sender] + _amount;\r\n        // if current user not staked up untill this point\r\n        if (!hasStaked[msg.sender]) {\r\n            stakers.push(msg.sender);\r\n        }\r\n\r\n        // update staking balance\r\n        isStaking[msg.sender] = true;\r\n        hasStaked[msg.sender] = true;\r\n    }\r\n\r\n    // Unstaking Tokens (withdrawal)\r\n    function unstakeTokens() public {\r\n        uint256 balance = stakingBalance[msg.sender];\r\n        require(balance > 0, \"account balance is 0 can't withdraw tokens\");\r\n\r\n        //withdraw tokens and send to back to investors account\r\n        tether.transfer(msg.sender, balance);\r\n\r\n        //reset staking balance\r\n        stakingBalance[msg.sender] = 0;\r\n\r\n        //uodate staking status\r\n        isStaking[msg.sender] = false;\r\n    }\r\n\r\n    // Issue rewards\r\n    function issueTokens() public {\r\n        require(msg.sender == owner, \"Caller must be ownwer\");\r\n        for (uint256 i = 0; i < stakers.length; i++) {\r\n            address recipient = stakers[i];\r\n            uint256 balance = stakingBalance[recipient] / 9;\r\n            if (balance > 0) {\r\n                rwd.transfer(recipient, balance);\r\n            }\r\n        }\r\n    }\r\n}\r\n",
  "sourcePath": "C:\\Users\\Sam\\Desktop\\react\\defi-staking-app-starter\\src\\contracts\\DecentralBank.sol",
  "compiler": {
    "name": "solc",
    "version": "0.8.13+commit.abaa5c0e.Emscripten.clang"
  },
  "schemaVersion": "3.4.6",
  "updatedAt": "2022-03-24T05:52:15.689Z",
  "networkType": "ethereum",
  "devdoc": {
    "kind": "dev",
    "methods": {},
    "version": 1
  },
  "userdoc": {
    "kind": "user",
    "methods": {},
    "version": 1
  }
}